:100000000C945E000C9486000C9486000C94860080
:100010000C9486000C9486000C9486000C94860048
:100020000C9486000C9486000C9486000C94860038
:100030000C9486000C9486000C9486000C94860028
:100040000C94CD020C9486000C941C050C945F0556
:100050000C9486000C9486000C9486000C94860008
:100060000C9486000C94860000000007000201003A
:100070000003040600000000000000000102040864
:100080001020408001020408102001020408102002
:10009000040404040404040402020202020203032E
:1000A0000303030300000000250028002B000000CC
:1000B0000000240027002A008F001D0611241FBE07
:1000C000CFEFD8E0DEBFCDBF11E0A0E0B1E0E8EABD
:1000D000F0E102C005900D92AC32B107D9F722E0F1
:1000E000ACE2B1E001C01D92AE32B207E1F710E020
:1000F000CCEBD0E004C02297FE010E944E08C83B22
:10010000D107C9F70E9473060C9452080C940000A2
:10011000DC01ED91FC910190F081E02D0994EF92CA
:100120000F9385E0E82E04E023E042E063EA72E00A
:100130008EE591E00E94780199E0E92E08E027E041
:1001400046E063EA72E085E491E00E9478012DE0E8
:10015000E22E0CE02BE04AE063EA72E08CE291E0F0
:100160000E9478010F91EF90089584E891E00E9439
:100170008A041816190664F061E484E891E00E948C
:1001800083046CE271E080E090E00E943A03EDCFDE
:10019000089540E052EC61E070E084E891E00E9454
:1001A0009A0584E891E00E941B068823D1F30E94FF
:1001B000B5008EE591E00C94FA0180E00E94A60360
:1001C00080E00E94A60390937A0180937901BC019C
:1001D000882777FD8095982F0E9413072FE73AE62E
:1001E0004CE35FE30E949F0720E030E045E753E4E3
:1001F0000E9480060E94E5068EE591E00E948A0238
:1002000081E00E94A6038EE591E00E94A60284E8A8
:1002100091E00E948A04181619060CF068C084E860
:1002200091E00E94B30490937801809377016091EC
:10023000790170917A0184E891E00E94880082E05F
:100240000E94A60382E00E94A603BC0184E891E01C
:100250000E94880083E00E94A60383E00E94A60318
:10026000BC0184E891E00E94880084E00E94A6031B
:1002700084E00E94A603BC0184E891E00E9488000B
:1002800085E00E94A60385E00E94A603BC0184E8E5
:1002900091E00E94880086E00E94A60386E00E940A
:1002A000A603BC0184E891E00E94880087E00E94D8
:1002B000A60387E00E94A603BC0184E891E00E94A7
:1002C000880088E00E94A60388E00E94A603BC0183
:1002D00084E891E00E94880089E00E94A60389E0FA
:1002E0000E94A603BC0184E891E00C948800089564
:1002F000EF92FF920F931F93CF93DF93EC011C8239
:100300007A876987488329830A83EB827C0100E02E
:1003100010E061E0F70181917F010E94EC030F5F23
:100320001F4F04301105A9F71F8A1E8A1D8A81E01C
:10033000888F1E821D8218861F8280E091E09A8B32
:10034000898B80911001909111019C8B8B8BDF9197
:10035000CF911F910F91FF90EF900895FF920F930F
:100360001F93CF93DF93DC011496EC91F0E0EB5EEA
:10037000FE4FF0808C01C0E0D0E06F2D6170F8017D
:1003800081918F010E942504F6942196C430D105F5
:10039000A1F7DF91CF911F910F91FF900895FC017C
:1003A00085819681218532858217930770F40196A5
:1003B00096838583848190E0019666E070E00E94D8
:1003C00002088483CF010C94AE010895FC0185815D
:1003D0009681009771F0019796838583848190E0E0
:1003E000059666E070E00E9402088483CF010C94B9
:1003F000AE0108950F931F93CF93DF93EC0189858E
:100400009A8501979E838D8300E010E089859A8507
:100410000817190750F4CE010E94E60180E293E02C
:100420000E9460030F5F1F4FF1CF1E821D8218864E
:100430001F821E8A1D8A1F8ADF91CF911F910F9103
:100440000895CF93DF93EC012D813E818F819885B4
:100450004D895E892817390739F44115510521F472
:1004600081E0888F1F8A4DC0452B59F42817390722
:1004700010F481E001C08FEF8F8B81E090E09E8BC4
:100480008D8B8F89181624F4CE010E94CF0103C0F2
:10049000CE010E94E6014F892D813E818F81988592
:1004A00014162CF4AC01421B530B9A0102C0281BFA
:1004B000390B8D899E891216130654F428173907B3
:1004C00038F02B893C898217930728F4019601C0E4
:1004D00001979E8B8D8B49895A898D899E8960E011
:1004E000FA0124E0629FE00DF11D11242081318189
:1004F0002817390710F46F5FF3CF82819381988BAF
:100500008F870E9417036B877C878D879E87DF917B
:10051000CF910895CF93DF93EC0189859A85681771
:10052000790718F0BC016150710978876F83888D55
:10053000882349F0188E0E9417036B877C878D876C
:100540009E87188A1F86DF91CF9108950F931F937E
:10055000CF93DF93EC01888D81111AC00E9417039D
:100560000B851C852D853E85601B710B820B930BC3
:100570000F85188920E030E0601771078207930724
:1005800038F0CE01DF91CF911F910F910C94210291
:10059000DF91CF911F910F9108951F920F920FB687
:1005A0000F9211242F933F938F939F93AF93BF93F9
:1005B00080917C0190917D01A0917E01B0917F019D
:1005C00030917B0123E0230F2D3720F40196A11DEC
:1005D000B11D05C026E8230F0296A11DB11D209371
:1005E0007B0180937C0190937D01A0937E01B09369
:1005F0007F018091800190918101A0918201B09151
:1006000083010196A11DB11D80938001909381010A
:10061000A0938201B0938301BF91AF919F918F917D
:100620003F912F910F900FBE0F901F9018953FB7DD
:10063000F8948091800190918101A0918201B09104
:10064000830126B5A89B05C02F3F19F00196A11D77
:10065000B11D3FBF6627782F892F9A2F620F711D1A
:10066000811D911D42E0660F771F881F991F4A95D3
:10067000D1F70895CF92DF92EF92FF92CF93DF935D
:100680006B017C010E941703EB01C114D104E1044A
:10069000F10479F00E9417036C1B7D0B683E7340D8
:1006A000A0F381E0C81AD108E108F108C851DC4F75
:1006B000ECCFDF91CF91FF90EF90DF90CF90089536
:1006C0000197009739F0880F991F880F991F02979B
:1006D0000197F1F70895789484B5826084BD84B55C
:1006E000816084BD85B5826085BD85B5816085BD2D
:1006F000EEE6F0E0808181608083E1E8F0E0108246
:10070000808182608083808181608083E0E8F0E086
:10071000808181608083E1EBF0E080818460808370
:10072000E0EBF0E0808181608083EAE7F0E08081A7
:100730008460808380818260808380818160808307
:100740008081806880831092C10008958E3008F007
:100750008E5087702091140190E4299F90011124FC
:10076000822B80937C0080917A00806480937A0051
:1007700080917A0086FDFCCF8091780020917900ED
:1007800090E0922B0895833081F028F4813099F025
:100790008230A1F008958630A9F08730B9F0843016
:1007A000D1F4809180008F7D03C0809180008F778D
:1007B00080938000089584B58F7702C084B58F7DC3
:1007C00084BD08958091B0008F7703C08091B00000
:1007D0008F7D8093B0000895CF93DF9390E0FC016C
:1007E000E458FF4F2491FC01E057FF4F8491882388
:1007F00049F190E0880F991FFC01E255FF4FA59148
:10080000B4918C559F4FFC01C591D4919FB7611154
:1008100008C0F8948C91209582238C938881822340
:100820000AC0623051F4F8948C91322F30958323B2
:100830008C938881822B888304C0F8948C91822BBE
:100840008C939FBFDF91CF9108950F931F93CF9308
:10085000DF931F92CDB7DEB7282F30E0F901E859BA
:10086000FF4F8491F901E458FF4F1491F901E057CB
:10087000FF4F04910023C9F0882321F069830E946F
:10088000C3036981E02FF0E0EE0FFF1FEC55FF4F2F
:10089000A591B4919FB7F8948C91611103C0109504
:1008A000812301C0812B8C939FBF0F90DF91CF914B
:1008B0001F910F910895CF92DF92EF92FF920F93C5
:1008C0001F93CF93DF936C017A01EB01E60EF71EC5
:1008D00000E010E0CE15DF0561F06991D601ED91E1
:1008E000FC910190F081E02DC6010995080F191FB8
:1008F000F1CFC801DF91CF911F910F91FF90EF9041
:10090000DF90CF900895DC01ED91FC910190F08192
:10091000E02D0994FC0124853585F901E05CFF4F49
:1009200080819181329620813181821B930B8F735C
:1009300099270895FC0184859585FC01E05CFF4FB3
:10094000408151813296208131814217530741F015
:100950000190F081E02DE80FF91F808190E008956B
:100960008FEF9FEF0895FC0184859585FC01E05C85
:10097000FF4F4081518132962081318142175307C8
:1009800079F0A081B181A80FB91F8C9120813181AC
:100990002F5F3F4F2F7333273183208390E00895DB
:1009A0008FEF9FEF0895FC0181A1882329F0A4898E
:1009B000B5898C9186FFFBCF11A20895CF93DF9369
:1009C000FC0126853785D901A05CBF4F8D919C9194
:1009D000119701968F739927E901CE5BDF4F48810C
:1009E000598184179507D9F30D90BC91A02DA20FC2
:1009F000B31F6C93A685B785A05CBF4F11969C93DF
:100A00008E93A689B7892C9181E090E0078C02C073
:100A1000880F991F0A94E2F7282B2C9381E081A379
:100A20000488F589E02D80818064808381E090E0F6
:100A3000DF91CF91089508951F920F920FB60F92F4
:100A400011242F933F934F938F939F93EF93FF9393
:100A50008091C00082FD1CC04091C60080912A0296
:100A600090912B0201968F73992720912C0230913F
:100A70002D028217930771F0E0912A02F0912B0268
:100A8000E651FE4F408390932B0280932A0202C0CE
:100A90008091C600FF91EF919F918F914F913F916F
:100AA0002F910F900FBE0F901F90189584E891E042
:100AB0000E948A04892B11F00C941B0508951F9243
:100AC0000F920FB60F9211242F933F938F939F9302
:100AD000EF93FF932091E6013091E7018091E801C7
:100AE0009091E9012817390731F48091C1008F7D79
:100AF0008093C10014C0E091E801F091E901EA554A
:100B0000FE4F20818091E8019091E90101968F7359
:100B100099279093E9018093E8012093C600FF9103
:100B2000EF919F918F913F912F910F900FBE0F905A
:100B30001F901895CF92DF92EF92FF92CF93DF93A1
:100B4000EC016A017B01411581EE580761057105D1
:100B5000F9F0EC89FD8981E090E008A002C0880FDF
:100B6000991F0A94E2F7808360E079E08DE390E0DA
:100B7000A70196010E941608215031094109510927
:100B80005695479537952795211580E1380798F0B8
:100B9000EC89FD89108260E874E88EE190E0A7019D
:100BA00096010E94160821503109410951095695B4
:100BB000479537952795E889F9893083EA89FB8934
:100BC000208319A2EE89FF89408181E090E09C0199
:100BD0000C8C02C0220F331F0A94E2F7422B408391
:100BE000EE89FF8940819C010D8C02C0220F331FCA
:100BF0000A94E2F7422B4083EE89FF8940819C01F1
:100C00000E8C02C0220F331F0A94E2F7422B40835E
:100C1000EE89FF8920810F8C02C0880F991F0A94EA
:100C2000E2F7809582238083DF91CF91FF90EF9050
:100C3000DF90CF90089581E008951092870110927F
:100C4000860188EE93E0A0E0B0E080938801909365
:100C50008901A0938A01B0938B018FE191E0909379
:100C60008501809384018AEE91E0909391018093B5
:100C7000900186EA91E0909393018093920185EC34
:100C800090E0909395018093940184EC90E0909390
:100C900097018093960180EC90E090939901809366
:100CA000980181EC90E090939B0180939A0182ECF3
:100CB00090E090939D0180939C0186EC90E090934E
:100CC0009F0180939E0184E08093A00183E0809344
:100CD000A10187E08093A20185E08093A30181E0D8
:100CE0008093A40108950E946B030E94C900C6E589
:100CF000D5E00E94DD002097E1F30E945605F9CF70
:100D00005058BB27AA270ED0E0C0D1D030F0D6D0A3
:100D100020F031F49F3F11F41EF4C6C00EF4E095AC
:100D2000E7FBBCC0E92FE2D080F3BA176207730774
:100D30008407950718F071F49EF5FAC00EF4E0955B
:100D40000B2EBA2FA02D0B01B90190010C01CA0185
:100D5000A0011124FF27591B99F0593F50F4503E30
:100D600068F11A16F040A22F232F342F4427585F22
:100D7000F3CF469537952795A795F0405395C9F73A
:100D80007EF41F16BA0B620B730B840BBAF09150F2
:100D9000A1F0FF0FBB1F661F771F881FC2F70EC091
:100DA000BA0F621F731F841F48F487957795679564
:100DB000B795F7959E3F08F0B3CF9395880F08F04D
:100DC0009927EE0F97958795089598D088F09F57AB
:100DD00090F0B92F9927B751A0F0D1F0660F771F87
:100DE000881F991F1AF0BA95C9F712C0B13081F067
:100DF0009FD0B1E008959CC0672F782F8827B85FF7
:100E000039F0B93FCCF3869577956795B395D9F7C7
:100E10003EF490958095709561957F4F8F4F9F4FD1
:100E20000895E89409C097FB3EF4909580957095DD
:100E300061957F4F8F4F9F4F9923A9F0F92F96E926
:100E4000BB279395F695879577956795B795F1119B
:100E5000F8CFFAF4BB0F11F460FF1BC06F5F7F4F38
:100E60008F4F9F4F16C0882311F096E911C077234A
:100E700021F09EE8872F762F05C0662371F096E853
:100E8000862F70E060E02AF09A95660F771F881F22
:100E9000DAF7880F9695879597F9089597F99F67E0
:100EA00080E870E060E008959FEF80EC08950024F2
:100EB0000A941616170618060906089500240A94BF
:100EC00012161306140605060895092E0394000C45
:100ED00011F4882352F0BB0F40F4BF2B11F460FFD4
:100EE00004C06F5F7F4F8F4F9F4F089557FD9058FD
:100EF000440F551F59F05F3F71F04795880F97FBDE
:100F0000991F61F09F3F79F0879508951216130697
:100F10001406551FF2CF4695F1DF08C016161706C6
:100F20001806991FF1CF86957105610508940895FB
:100F3000E894BB2766277727CB0197F908950BD054
:100F4000C4CFB5DF28F0BADF18F0952309F0A6CF9B
:100F5000ABCF1124EECFCADFA0F3959FD1F3950F4D
:100F600050E0551F629FF001729FBB27F00DB11D2D
:100F7000639FAA27F00DB11DAA1F649F6627B00DBD
:100F8000A11D661F829F2227B00DA11D621F739FA6
:100F9000B00DA11D621F839FA00D611D221F749FB4
:100FA0003327A00D611D231F849F600D211D822FFB
:100FB000762F6A2F11249F5750408AF0E1F0882342
:100FC0004AF0EE0FFF1FBB1F661F771F881F91504F
:100FD0005040A9F79E3F510570F060CFAACF5F3F08
:100FE000ECF3983EDCF3869577956795B795F79582
:100FF000E7959F5FC1F7FE2B880F911D969587950A
:1010000097F9089597FB072E16F4009407D077FD03
:1010100009D00E94380807FC05D03EF490958195D0
:101020009F4F0895709561957F4F0895A1E21A2E04
:10103000AA1BBB1BFD010DC0AA1FBB1FEE1FFF1F7C
:10104000A217B307E407F50720F0A21BB30BE40BCC
:10105000F50B661F771F881F991F1A9469F7609513
:101060007095809590959B01AC01BD01CF010895CD
:10107000AA1BBB1B51E107C0AA1FBB1FA617B707BE
:1010800010F0A61BB70B881F991F5A95A9F78095DA
:101090009095BC01CD010895EE0FFF1F0590F491CE
:0810A000E02D0994F894FFCF44
:1010A8001400B80B3200DC056400E8039600200346
:1010B8002C01580201090107060E0800000000DE95
:0C10C800045B048A04B3049A04D30400FF
:00000001FF
