:100000000C943A010C946B010C946B010C946B01F1
:100010000C946B010C946B010C946B010C946B01B0
:100020000C946B010C946B010C946B010C946B01A0
:100030000C946B010C946B010C946B010C946B0190
:100040000C946B010C946B010C946B010C946B0180
:100050000C946B010C946B010C946B010C94F003E9
:100060000C946B010C94A7060C9497070C946B01ED
:100070000C946B010C946B010C946B010C946B0150
:100080000C946B010C946B010C946B010C946B0140
:100090000C94DB060C94D6070C946B010C946B014A
:1000A0000C946B010C946B010C946B010C946B0120
:1000B0000C946B010C946B010C946B010C946B0110
:1000C0000C946B010C946B010C946B010C940F0756
:1000D0000C9415080C946B010C9443070C94540871
:1000E0000C946B012A052D052005240564053105B6
:1000F00035053B053F05430549054D05510564059B
:1001000057055B055F050C9449050C9457050C9445
:100110005B050C9451050C9464050C9431050C940A
:100120005F050C942A050C94D4050C944D050C9491
:100130000C060C94A3010C94FC050C9476070C940B
:100140002D050C9425060C9435050C9414090C947B
:100150003F050C9424050C9445060C9450060C9411
:1001600020050C9443050C943B050000090A020885
:100170000B0C0D0706030401000000000000000046
:10018000000000000000000000000000000000006F
:1001900000000000000011100F000000000000002F
:1001A000000000000000000000000000000000004F
:1001B0000102102020080810204010204080020179
:1001C000020108040201010204081020408080405E
:1001D000201008040201800402018040201008045D
:1001E00002010804020101020408102040800102FB
:1001F00004081020408005050505070508080808C3
:10020000020202020A0A08080404040401010101AE
:1002100001010101030303030303030304070707A9
:100220000C0C0C0C0C0C0C0C02020202060606064E
:10023000060606060B0B0B0B0B0B0B0B000022002C
:10024000250028002B002E003100340002010000A0
:10025000050108010B0100002100240027002A00ED
:100260002D003000330001010000040107010A01E4
:10027000A301140911241FBECFEFD1E2DEBFCDBF11
:1002800000E00CBF12E0A0E0B2E0EEE5F8E100E033
:100290000BBF02C007900D92AC32B107D9F725E031
:1002A000ACE2B2E001C01D92AC32B207E1F712E05D
:1002B000C4E7D2E000E006C022970109FE010BBFAF
:1002C0000E94150CC037D10780E00807A9F70E94EB
:1002D0004A0A0C942D0C0C94000040E855E260E0B2
:1002E00070E08AEE92E00E94930868EE73E080E08E
:1002F00090E00E945D048EE592E00E94F90268EEB3
:1003000073E080E090E00E945D0464E972E08EE5B5
:1003100092E00E9489038EE592E00E94CC0368EC93
:1003200070E08EE592E00E9489038EE592E00E94E3
:10033000CC0368EE73E080E090E00E945D048EE5FF
:1003400092E00C94F902EF920F9382E0E82E03E022
:1003500024E045E063EA72E08EE592E00E947702D5
:1003600099E0E92E08E027E046E063EA72E085E4E0
:1003700092E00E9477022DE0E22E0CE02BE04AE0B2
:1003800063EA72E08CE292E00E9477020F91EF90B4
:100390000895CF93DF93EC01D7FF02C081509F4FA8
:1003A000692F8AEE92E00E945006E091EA02F091F5
:1003B000EB02BE0177270190F081E02D8AEE92E0FA
:1003C000199564E68AEE92E0DF91CF910C94500685
:1003D00080E00E94F00480E00E94F00490937A0292
:1003E00080937902BC01882777FD8095982F0E9421
:1003F000EA0A23EE3AEA42E35DE30E94760B21EE3D
:100400003AE748E651E40E94570A26E636E646E80F
:1004100051E40E94760B0E94BC0A8EE592E00E9495
:10042000890381E00E94F0048EE592E00E94A5031A
:100430008AEE92E00E94FC05181619060CF056C0D0
:100440008AEE92E00E9425069093780280937702CC
:100450008091790290917A020E94C90181E00E9404
:10046000F00481E00E94F0040E94C90182E00E9431
:10047000F00482E00E94F0040E94C90183E00E941F
:10048000F00483E00E94F0040E94C90184E00E940D
:10049000F00484E00E94F0040E94C90185E00E94FB
:1004A000F00485E00E94F0040E94C90186E00E94E9
:1004B000F00486E00E94F0040E94C90187E00E94D7
:1004C000F00487E00E94F0040E94C90188E00E94C5
:1004D000F00488E00E94F0040E94C90189E00E94B3
:1004E000F00489E00E94F0040C94C9010895EF9291
:1004F000FF920F931F93CF93DF93EC011C827A87B7
:100500006987488329830A83EB827C0100E010E03D
:1005100061E0F70181917F010E9465050F5F1F4F28
:1005200004301105A9F71F8A1E8A1D8A81E0888F71
:100530001E821D8218861F8280E092E09A8B898B32
:1005400080911002909111029C8B8B8BDF91CF9147
:100550001F910F91FF90EF900895FF920F931F93BB
:10056000CF93DF93DC011496EC91F0E0EB5EFD4F4E
:10057000F0808C01C0E0D0E06F2D6170F8018191B6
:100580008F010E949E05F6942196C430D105A1F7F3
:10059000DF91CF911F910F91FF900895FC0185810C
:1005A0009681218532858217930770F40196968390
:1005B0008583848190E0019666E070E00E94D90B0B
:1005C0008483CF010C94AD020895FC01858196814E
:1005D000009771F0019796838583848190E005965A
:1005E00066E070E00E94D90B8483CF010C94AD02C9
:1005F00008950F931F93CF93DF93EC0189859A851C
:1006000001979E838D8300E010E089859A85081705
:10061000190750F4CE010E94E50280E293E00E94A7
:1006200083040F5F1F4FF1CF1E821D8218861F8229
:100630001E8A1D8A1F8ADF91CF911F910F91089505
:10064000CF93DF93EC012D813E818F8198854D8979
:100650005E892817390739F44115510521F481E0E5
:10066000888F1F8A4DC0452B59F42817390710F47D
:1006700081E001C08FEF8F8B81E090E09E8B8D8BAE
:100680008F89181624F4CE010E94CE0203C0CE0139
:100690000E94E5024F892D813E818F819885141635
:1006A0002CF4AC01421B530B9A0102C0281B390BDE
:1006B0008D899E891216130654F42817390738F0CD
:1006C0002B893C898217930728F4019601C0019772
:1006D0009E8B8D8B49895A898D899E8960E0FA01AC
:1006E00024E0629FE00DF11D112420813181281743
:1006F000390710F46F5FF3CF82819381988B8F87D6
:100700000E943A046B877C878D879E87DF91CF910B
:100710000895CF93DF93EC0189859A85681779074F
:1007200018F0BC016150710978876F83888D882328
:1007300049F0188E0E943A046B877C878D879E87CC
:10074000188A1F86DF91CF9108950F931F93CF933F
:10075000DF93EC01888D81111AC00E943A040B8549
:100760001C852D853E85601B710B820B930B0F85BD
:10077000188920E030E0601771078207930738F08E
:10078000CE01DF91CF911F910F910C942003DF9147
:10079000CF911F910F9108950F931F93CF93DF93E4
:1007A000EC01888D811117C00E943A040B851C85CD
:1007B0002D853E85601B710B820B930B0F8518896D
:1007C00020E030E0601771078207930750F3CE01F5
:1007D0000E942003E6CFDF91CF911F910F910895E2
:1007E0001F920F920FB60F9211242F933F938F9366
:1007F0009F93AF93BF9380917C0290917D02A091D3
:100800007E02B0917F0230917B0223E0230F2D37CF
:1008100020F40196A11DB11D05C026E8230F029604
:10082000A11DB11D20937B0280937C0290937D02D9
:10083000A0937E02B0937F0280918002909181020A
:10084000A0918202B09183020196A11DB11D8093F7
:10085000800290938102A0938202B0938302BF91A1
:10086000AF919F918F913F912F910F900FBE0F905D
:100870001F9018953FB7F894809180029091810263
:10088000A0918202B091830226B5A89B05C02F3F9C
:1008900019F00196A11DB11D3FBF6627782F892F42
:1008A0009A2F620F711D811D911D42E0660F771F07
:1008B000881F991F4A95D1F70895CF92DF92EF9242
:1008C000FF92CF93DF936B017C010E943A04EB010E
:1008D000C114D104E104F10479F00E943A046C1BC4
:1008E0007D0B683E7340A0F381E0C81AD108E1088F
:1008F000F108C851DC4FECCFDF91CF91FF90EF9022
:10090000DF90CF9008950197009739F0880F991FD5
:10091000880F991F02970197F1F70895789484B58D
:10092000826084BD84B5816084BD85B5826085BDEB
:1009300085B5816085BDEEE6F0E0808181608083D1
:10094000E1E8F0E0108280818260808380818160B4
:100950008083E0E8F0E0808181608083E1EBF0E07B
:10096000808184608083E0EBF0E08081816080831F
:10097000E1E9F0E080818260808380818160808312
:10098000E0E9F0E0808181608083E1EAF0E080814D
:1009900082608083808181608083E0EAF0E08081F2
:1009A00081608083E1E2F1E08081826080838081E8
:1009B00081608083E0E2F1E0808181608083EAE70A
:1009C000F0E0808184608083808182608083808188
:1009D000816080838081806880831092C100089547
:1009E000863308F0865320917B00982F9870277FDC
:1009F000922B90937B0087702091140290E4299FA2
:100A000090011124822B80937C0080917A00806475
:100A100080937A0080917A0086FDFCCF80917800E7
:100A20002091790090E0922B089590E0FC0131979D
:100A3000E131F10508F048C0EE58FF4F0C940F0C5F
:100A4000809180008F7703C0809180008F7D80939C
:100A50008000089584B58F7702C084B58F7D84BDF2
:100A600008958091B0008F7703C08091B0008F7D92
:100A70008093B0000895809190008F7707C0809197
:100A800090008F7D03C080919000877F80939000BD
:100A900008958091A0008F7707C08091A0008F7D7E
:100AA00003C08091A000877F8093A000089580916B
:100AB00020018F7707C0809120018F7D03C0809136
:100AC0002001877F809320010895CF93DF9390E0EA
:100AD000FC01E055FE4F2491FC01EA50FE4F849149
:100AE000882349F190E0880F991FFC01EA5AFD4FD5
:100AF000A591B491845C9D4FFC01C591D4919FB7A1
:100B0000611108C0F8948C91209582238C93888180
:100B100082230AC0623051F4F8948C91322F3095C0
:100B200083238C938881822B888304C0F8948C91D2
:100B3000822B8C939FBFDF91CF9108950F931F93CA
:100B4000CF93DF931F92CDB7DEB7282F30E0F901A6
:100B5000E659FE4F8491F901E055FE4F1491F901D9
:100B6000EA50FE4F04910023C9F0882321F06983E5
:100B70000E9415056981E02FF0E0EE0FFF1FE45C95
:100B8000FD4FA591B4919FB7F8948C91611103C06A
:100B90001095812301C0812B8C939FBF0F90DF9113
:100BA000CF911F910F910895CF92DF92EF92FF9214
:100BB0000F931F93CF93DF936C017A01EB01E60E45
:100BC000F71E00E010E0CE15DF0561F06991D60157
:100BD000ED91FC910190F081E02DC6011995080F6F
:100BE000191FF1CFC801DF91CF911F910F91FF9095
:100BF000EF90DF90CF900895FC0124853585F901B1
:100C0000E05CFF4F80819181329620813181821B8F
:100C1000930B8F7399270895FC0184859585FC01BA
:100C2000E05CFF4F40815181329620813181421733
:100C3000530741F00190F081E02DE80FF91F80810A
:100C400090E008958FEF9FEF0895FC0184859585CE
:100C5000FC01E05CFF4F408151813296208131815F
:100C60004217530779F0A081B181A80FB91F8C9169
:100C7000208131812F5F3F4F2F73332731832083B2
:100C800090E008958FEF9FEF0895FC0181A18823E4
:100C900029F0A489B5898C9186FFFBCF11A2089514
:100CA000CF93DF93FC0126853785D901A05CBF4F28
:100CB0008D919C91119701968F739927E901CE5BD5
:100CC000DF4F4881598184179507D9F30D90BC9166
:100CD000A02DA20FB31F6C93A685B785A05CBF4F54
:100CE00011969C938E93A689B7892C9181E090E010
:100CF000078C02C0880F991F0A94E2F7282B2C93C7
:100D000081E081A30488F589E02D8081806480835F
:100D100081E090E0DF91CF910895FB01E05CFF4F0F
:100D2000208131812F5F3F4F2F733327DB01AE5B73
:100D3000BF4F4D915C912417350739F0A081B181E7
:100D4000A60FB71F8C9331832083089508951F92B7
:100D50000F920FB60F9211240BB60F922F933F9361
:100D60004F935F936F937F938F939F93AF93BF93B3
:100D7000EF93FF938091C00082FD07C08091C60071
:100D800068EE74E00E948D0602C08091C600FF915B
:100D9000EF91BF91AF919F918F917F916F915F91F3
:100DA0004F913F912F910F900BBE0F900FBE0F9060
:100DB0001F90189508951F920F920FB60F9211244D
:100DC0000BB60F922F933F934F935F936F937F9345
:100DD0008F939F93AF93BF93EF93FF938091C8003E
:100DE00082FD07C08091CE0060E674E00E948D060F
:100DF00002C08091CE00FF91EF91BF91AF919F9182
:100E00008F917F916F915F914F913F912F910F90B3
:100E10000BBE0F900FBE0F901F90189508951F9254
:100E20000F920FB60F9211240BB60F922F933F9390
:100E30004F935F936F937F938F939F93AF93BF93E2
:100E4000EF93FF938091D00082FD07C08091D60080
:100E500068ED73E00E948D0602C08091D600FF917C
:100E6000EF91BF91AF919F918F917F916F915F9122
:100E70004F913F912F910F900BBE0F900FBE0F908F
:100E80001F90189508951F920F920FB60F9211247C
:100E90000BB60F922F933F934F935F936F937F9374
:100EA0008F939F93AF93BF93EF93FF938091300104
:100EB00082FD07C08091360160E573E00E948D06D7
:100EC00002C080913601FF91EF91BF91AF919F9148
:100ED0008F917F916F915F914F913F912F910F90E3
:100EE0000BBE0F900FBE0F901F9018958AEE92E0E8
:100EF0000E94FC05892B11F00E94A60688EC92E066
:100F00000E94FC05892B11F00E94DA0686EA92E025
:100F10000E94FC05892B11F00E940E0784E892E0E4
:100F20000E94FC05892B11F00C94420708951F9232
:100F30000F920FB60F9211240BB60F922F933F937F
:100F40008F939F93EF93FF932091E4043091E504F6
:100F50008091E6049091E7042817390731F48091D5
:100F6000C1008F7D8093C10014C0E091E604F09130
:100F7000E704EC55FB4F20818091E6049091E70453
:100F800001968F7399279093E7048093E60420934A
:100F9000C600FF91EF919F918F913F912F910F90FC
:100FA0000BBE0F900FBE0F901F9018951F920F92BF
:100FB0000FB60F9211240BB60F922F933F938F937E
:100FC0009F93EF93FF9320915C0430915D04809197
:100FD0005E0490915F042817390731F48091C900AD
:100FE0008F7D8093C90014C0E0915E04F0915F048E
:100FF000E45EFB4F208180915E0490915F04019636
:101000008F73992790935F0480935E042093CE00A2
:10101000FF91EF919F918F913F912F910F900BBE78
:101020000F900FBE0F901F9018951F920F920FB642
:101030000F9211240BB60F922F933F938F939F9390
:10104000EF93FF932091D4033091D5038091D60381
:101050009091D7032817390731F48091D1008F7D03
:101060008093D10014C0E091D603F091D703EC56E1
:10107000FC4F20818091D6039091D70301968F7306
:1010800099279093D7038093D6032093D600FF919E
:10109000EF919F918F913F912F910F900BBE0F90E9
:1010A0000FBE0F901F9018951F920F920FB60F92C0
:1010B00011240BB60F922F933F938F939F93EF932F
:1010C000FF9320914C0330914D0380914E039091FA
:1010D0004F032817390731F4809131018F7D8093B8
:1010E000310114C0E0914E03F0914F03E45FFC4FD7
:1010F000208180914E0390914F0301968F73992721
:1011000090934F0380934E0320933601FF91EF910C
:101110009F918F913F912F910F900BBE0F900FBE1B
:101120000F901F901895CF92DF92EF92FF92CF937E
:10113000DF93EC016A017B01411581EE58076105DF
:101140007105F9F0EC89FD8981E090E008A002C00A
:10115000880F991F0A94E2F7808360E079E08DE3BD
:1011600090E0A70196010E94ED0B21503109410941
:1011700051095695479537952795211580E13807F0
:1011800098F0EC89FD89108260E874E88EE190E0C7
:10119000A70196010E94ED0B215031094109510927
:1011A0005695479537952795E889F9893083EA89D7
:1011B000FB89208319A2EE89FF89408181E090E0BC
:1011C0009C010C8C02C0220F331F0A94E2F7422BC1
:1011D0004083EE89FF8940819C010D8C02C0220F63
:1011E000331F0A94E2F7422B4083EE89FF89408146
:1011F0009C010E8C02C0220F331F0A94E2F7422B8F
:101200004083EE89FF8920810F8C02C0880F991FCF
:101210000A94E2F7809582238083DF91CF91FF903B
:10122000EF90DF90CF900895CF931092ED0210923F
:10123000EC0288EE93E0A0E0B0E08093EE029093A1
:10124000EF02A093F002B093F1022FE132E030936D
:10125000EB022093EA0248EE54E05093F7024093E9
:10126000F60244EA54E05093F9024093F80245EC48
:1012700050E05093FB024093FA0244EC50E050934C
:10128000FD024093FC0240EC50E05093FF0240937B
:10129000FE0241EC50E0509301034093000342EC06
:1012A00050E0509303034093020346EC50E0509308
:1012B000050340930403C4E0C0930603F3E0F093F6
:1012C0000703E7E0E093080375E07093090361E02A
:1012D00060930A031092CB021092CA028093CC0250
:1012E0009093CD02A093CE02B093CF023093C90267
:1012F0002093C80240E654E05093D5024093D402B4
:101300004CE154E05093D7024093D6024DEC50E0AC
:101310005093D9024093D8024CEC50E05093DB023A
:101320004093DA0248EC50E05093DD024093DC0237
:1013300049EC50E05093DF024093DE024AEC50E06B
:101340005093E1024093E0024EEC50E05093E302F0
:101350004093E202C093E402F093E502E093E602D8
:101360007093E7026093E8021092A9021092A8021B
:101370008093AA029093AB02A093AC02B093AD020B
:101380003093A7022093A60248ED53E05093B30296
:101390004093B20244E953E05093B5024093B40243
:1013A00045ED50E05093B7024093B60244ED50E053
:1013B0005093B9024093B80240ED50E05093BB0205
:1013C0004093BA0241ED50E05093BD024093BC02FD
:1013D00042ED50E05093BF024093BE0246ED50E014
:1013E0005093C1024093C002C093C202F093C30263
:1013F000E093C4027093C5026093C6021092870204
:10140000109286028093880290938902A0938A02A8
:10141000B0938B02309385022093840280E593E0A1
:1014200090939102809390028CE093E090939302CA
:101430008093920285E391E09093950280939402C9
:1014400084E391E0909397028093960280E391E089
:10145000909399028093980281E391E090939B028C
:1014600080939A0282E391E090939D0280939C0284
:1014700086E391E090939F0280939E02C093A00226
:10148000F093A102E093A2027093A3026093A402DE
:10149000CF9108950E948E040E946D01C6E7D7E0A7
:1014A0000E94E8012097E1F30E947607F9CF505897
:1014B000BB27AA270ED0E0C0D1D030F0D6D020F084
:1014C00031F49F3F11F41EF4C6C00EF4E095E7FB23
:1014D000BCC0E92FE2D080F3BA1762077307840714
:1014E000950718F071F49EF5FAC00EF4E0950B2EF6
:1014F000BA2FA02D0B01B90190010C01CA01A00166
:101500001124FF27591B99F0593F50F4503E68F1C0
:101510001A16F040A22F232F342F4427585FF3CF01
:10152000469537952795A795F0405395C9F77EF4D2
:101530001F16BA0B620B730B840BBAF09150A1F01B
:10154000FF0FBB1F661F771F881FC2F70EC0BA0FA1
:10155000621F731F841F48F4879577956795B79529
:10156000F7959E3F08F0B3CF9395880F08F0992721
:10157000EE0F97958795089598D088F09F5790F033
:10158000B92F9927B751A0F0D1F0660F771F881FA8
:10159000991F1AF0BA95C9F712C0B13081F09FD0E7
:1015A000B1E008959CC0672F782F8827B85F39F085
:1015B000B93FCCF3869577956795B395D9F73EF407
:1015C00090958095709561957F4F8F4F9F4F0895AF
:1015D000E89409C097FB3EF49095809570956195CD
:1015E0007F4F8F4F9F4F9923A9F0F92F96E9BB2783
:1015F0009395F695879577956795B795F111F8CFFF
:10160000FAF4BB0F11F460FF1BC06F5F7F4F8F4F69
:101610009F4F16C0882311F096E911C0772321F05F
:101620009EE8872F762F05C0662371F096E8862FF7
:1016300070E060E02AF09A95660F771F881FDAF74E
:10164000880F9695879597F9089597F99F6780E891
:1016500070E060E008959FEF80EC089500240A9404
:101660001616170618060906089500240A9412167D
:101670001306140605060895092E0394000C11F4B0
:10168000882352F0BB0F40F4BF2B11F460FF04C05D
:101690006F5F7F4F8F4F9F4F089557FD9058440FB6
:1016A000551F59F05F3F71F04795880F97FB991FC1
:1016B00061F09F3F79F0879508951216130614067E
:1016C000551FF2CF4695F1DF08C01616170618060B
:1016D000991FF1CF86957105610508940895E894E6
:1016E000BB2766277727CB0197F908950BD0C4CF86
:1016F000B5DF28F0BADF18F0952309F0A6CFABCFFD
:101700001124EECFCADFA0F3959FD1F3950F50E0DF
:10171000551F629FF001729FBB27F00DB11D639FA3
:10172000AA27F00DB11DAA1F649F6627B00DA11D49
:10173000661F829F2227B00DA11D621F739FB00DEF
:10174000A11D621F839FA00D611D221F749F33275F
:10175000A00D611D231F849F600D211D822F762FF8
:101760006A2F11249F5750408AF0E1F088234AF0F5
:10177000EE0FFF1FBB1F661F771F881F9150504041
:10178000A9F79E3F510570F060CFAACF5F3FECF301
:10179000983EDCF3869577956795B795F795E7952D
:1017A0009F5FC1F7FE2B880F911D9695879597F93E
:1017B000089597FB072E16F4009407D077FD09D003
:1017C0000E94190C07FC05D03EF4909581959F4F1F
:1017D0000895709561957F4F0895A1E21A2EAA1B76
:1017E000BB1BFD010DC0AA1FBB1FEE1FFF1FA217D1
:1017F000B307E407F50720F0A21BB30BE40BF50BCE
:10180000661F771F881F991F1A9469F76095709556
:10181000809590959B01AC01BD01CF010895EE0F1D
:10182000FF1F0590F491E02D19940790F691E02D9B
:101830001994AA1BBB1B51E107C0AA1FBB1FA61707
:10184000B70710F0A61BB70B881F991F5A95A9F769
:0E18500080959095BC01CD010895F894FFCFCE
:10185E001400B80B3200DC056400E8039600200388
:10186E002C01580201090107060E08000000005065
:0C187E0006D405FC0525060C06450600F6
:00000001FF
